{
  "contractName": "Purchase",
  "abi": [
    {
      "constant": true,
      "inputs": [],
      "name": "seller",
      "outputs": [
        {
          "name": "",
          "type": "address"
        }
      ],
      "payable": false,
      "stateMutability": "view",
      "type": "function"
    },
    {
      "constant": true,
      "inputs": [],
      "name": "value",
      "outputs": [
        {
          "name": "",
          "type": "uint256"
        }
      ],
      "payable": false,
      "stateMutability": "view",
      "type": "function"
    },
    {
      "constant": true,
      "inputs": [],
      "name": "buyer",
      "outputs": [
        {
          "name": "",
          "type": "address"
        }
      ],
      "payable": false,
      "stateMutability": "view",
      "type": "function"
    },
    {
      "constant": true,
      "inputs": [],
      "name": "state",
      "outputs": [
        {
          "name": "",
          "type": "uint8"
        }
      ],
      "payable": false,
      "stateMutability": "view",
      "type": "function"
    },
    {
      "inputs": [],
      "payable": true,
      "stateMutability": "payable",
      "type": "constructor"
    },
    {
      "anonymous": false,
      "inputs": [],
      "name": "Aborted",
      "type": "event"
    },
    {
      "anonymous": false,
      "inputs": [],
      "name": "PurchaseConfirmed",
      "type": "event"
    },
    {
      "anonymous": false,
      "inputs": [],
      "name": "ItemReceived",
      "type": "event"
    },
    {
      "constant": false,
      "inputs": [
        {
          "name": "_value",
          "type": "uint256"
        }
      ],
      "name": "SetValue",
      "outputs": [],
      "payable": false,
      "stateMutability": "nonpayable",
      "type": "function"
    },
    {
      "constant": false,
      "inputs": [
        {
          "name": "_buyer",
          "type": "address"
        }
      ],
      "name": "SetBuyerAddress",
      "outputs": [],
      "payable": false,
      "stateMutability": "nonpayable",
      "type": "function"
    },
    {
      "constant": false,
      "inputs": [
        {
          "name": "_seller",
          "type": "address"
        }
      ],
      "name": "SetSellerAddress",
      "outputs": [],
      "payable": false,
      "stateMutability": "nonpayable",
      "type": "function"
    },
    {
      "constant": false,
      "inputs": [],
      "name": "abort",
      "outputs": [],
      "payable": false,
      "stateMutability": "nonpayable",
      "type": "function"
    },
    {
      "constant": false,
      "inputs": [],
      "name": "confirmPurchase",
      "outputs": [],
      "payable": true,
      "stateMutability": "payable",
      "type": "function"
    },
    {
      "constant": false,
      "inputs": [],
      "name": "confirmReceived",
      "outputs": [],
      "payable": false,
      "stateMutability": "nonpayable",
      "type": "function"
    }
  ],
  "bytecode": "0x606060405233600160006101000a81548173ffffffffffffffffffffffffffffffffffffffff021916908373ffffffffffffffffffffffffffffffffffffffff16021790555060023481151561005157fe5b046000819055503460005460020214151561006b57600080fd5b6108ad8061007a6000396000f3006060604052600436106100a4576000357c0100000000000000000000000000000000000000000000000000000000900463ffffffff16806308551a53146100a957806335a063b4146100fe5780633fa4f245146101135780636819bf741461013c5780637150d8ae1461017557806373fac6f0146101ca578063c19d93fb146101df578063c9b6d9e114610216578063d69606971461024f578063ed8b070614610259575b600080fd5b34156100b457600080fd5b6100bc61027c565b604051808273ffffffffffffffffffffffffffffffffffffffff1673ffffffffffffffffffffffffffffffffffffffff16815260200191505060405180910390f35b341561010957600080fd5b6101116102a2565b005b341561011e57600080fd5b6101266103fe565b6040518082815260200191505060405180910390f35b341561014757600080fd5b610173600480803573ffffffffffffffffffffffffffffffffffffffff16906020019091905050610404565b005b341561018057600080fd5b6101886104a4565b604051808273ffffffffffffffffffffffffffffffffffffffff1673ffffffffffffffffffffffffffffffffffffffff16815260200191505060405180910390f35b34156101d557600080fd5b6101dd6104ca565b005b34156101ea57600080fd5b6101f261068a565b6040518082600281111561020257fe5b60ff16815260200191505060405180910390f35b341561022157600080fd5b61024d600480803573ffffffffffffffffffffffffffffffffffffffff1690602001909190505061069d565b005b61025761073d565b005b341561026457600080fd5b61027a600480803590602001909190505061081b565b005b600160009054906101000a900473ffffffffffffffffffffffffffffffffffffffff1681565b600160009054906101000a900473ffffffffffffffffffffffffffffffffffffffff1673ffffffffffffffffffffffffffffffffffffffff163373ffffffffffffffffffffffffffffffffffffffff161415156102fe57600080fd5b600080600281111561030c57fe5b600260149054906101000a900460ff16600281111561032757fe5b14151561033357600080fd5b7f72c874aeff0b183a56e2b79c71b46e1aed4dee5e09862134b8821ba2fddbf8bf60405160405180910390a160028060146101000a81548160ff0219169083600281111561037d57fe5b0217905550600160009054906101000a900473ffffffffffffffffffffffffffffffffffffffff1673ffffffffffffffffffffffffffffffffffffffff166108fc3073ffffffffffffffffffffffffffffffffffffffff16319081150290604051600060405180830381858888f1935050505015156103fb57600080fd5b50565b60005481565b600260009054906101000a900473ffffffffffffffffffffffffffffffffffffffff1673ffffffffffffffffffffffffffffffffffffffff163373ffffffffffffffffffffffffffffffffffffffff1614151561046057600080fd5b80600260006101000a81548173ffffffffffffffffffffffffffffffffffffffff021916908373ffffffffffffffffffffffffffffffffffffffff16021790555050565b600260009054906101000a900473ffffffffffffffffffffffffffffffffffffffff1681565b600260009054906101000a900473ffffffffffffffffffffffffffffffffffffffff1673ffffffffffffffffffffffffffffffffffffffff163373ffffffffffffffffffffffffffffffffffffffff1614151561052657600080fd5b600180600281111561053457fe5b600260149054906101000a900460ff16600281111561054f57fe5b14151561055b57600080fd5b7fe89152acd703c9d8c7d28829d443260b411454d45394e7995815140c8cbcbcf760405160405180910390a160028060146101000a81548160ff021916908360028111156105a557fe5b0217905550600260009054906101000a900473ffffffffffffffffffffffffffffffffffffffff1673ffffffffffffffffffffffffffffffffffffffff166108fc6000549081150290604051600060405180830381858888f19350505050151561060e57600080fd5b600160009054906101000a900473ffffffffffffffffffffffffffffffffffffffff1673ffffffffffffffffffffffffffffffffffffffff166108fc3073ffffffffffffffffffffffffffffffffffffffff16319081150290604051600060405180830381858888f19350505050151561068757600080fd5b50565b600260149054906101000a900460ff1681565b600160009054906101000a900473ffffffffffffffffffffffffffffffffffffffff1673ffffffffffffffffffffffffffffffffffffffff163373ffffffffffffffffffffffffffffffffffffffff161415156106f957600080fd5b80600160006101000a81548173ffffffffffffffffffffffffffffffffffffffff021916908373ffffffffffffffffffffffffffffffffffffffff16021790555050565b600080600281111561074b57fe5b600260149054906101000a900460ff16600281111561076657fe5b14151561077257600080fd5b600054600202341480151561078657600080fd5b7fd5d55c8a68912e9a110618df8d5e2e83b8d83211c57a8ddd1203df92885dc88160405160405180910390a133600260006101000a81548173ffffffffffffffffffffffffffffffffffffffff021916908373ffffffffffffffffffffffffffffffffffffffff1602179055506001600260146101000a81548160ff0219169083600281111561081257fe5b02179055505050565b600160009054906101000a900473ffffffffffffffffffffffffffffffffffffffff1673ffffffffffffffffffffffffffffffffffffffff163373ffffffffffffffffffffffffffffffffffffffff1614151561087757600080fd5b80600081905550505600a165627a7a723058201eed9c21feb385c0e3696194021b8aafb202a44395200150ec45746ca8a891f10029",
  "source": "pragma solidity ^0.4.11;\r\n\r\ncontract Purchase {\r\n    uint public value;\r\n    address public seller;\r\n    address public buyer;\r\n    enum State { Created, Locked, Inactive }\r\n    State public state;\r\n\r\n    // Ensure that `msg.value` is an even number.\r\n    // Division will truncate if it is an odd number.\r\n    // Check via multiplication that it wasn't an odd number.\r\n    function Purchase() public payable {\r\n        seller = msg.sender;\r\n        value = msg.value / 2;\r\n        require((2 * value) == msg.value);\r\n    }\r\n    \r\n    function SetValue(uint _value) public\r\n    onlySeller\r\n    {\r\n        value = _value;\r\n    }\r\n    \r\n    function SetBuyerAddress(address _buyer) public\r\n    onlyBuyer\r\n    {\r\n        buyer = _buyer;\r\n    }\r\n    \r\n    function SetSellerAddress(address _seller) public\r\n    onlySeller\r\n    {\r\n        seller = _seller;\r\n    }\r\n    \r\n\r\n    modifier condition(bool _condition) {\r\n        require(_condition);\r\n        _;\r\n    }\r\n\r\n    modifier onlyBuyer() {\r\n        require(msg.sender == buyer);\r\n        _;\r\n    }\r\n\r\n    modifier onlySeller() {\r\n        require(msg.sender == seller);\r\n        _;\r\n    }\r\n\r\n    modifier inState(State _state) {\r\n        require(state == _state);\r\n        _;\r\n    }\r\n\r\n    event Aborted();\r\n    event PurchaseConfirmed();\r\n    event ItemReceived();\r\n\r\n    /// Abort the purchase and reclaim the ether.\r\n    /// Can only be called by the seller before\r\n    /// the contract is locked.\r\n    function abort()\r\n        public\r\n        onlySeller\r\n        inState(State.Created)\r\n    {\r\n        Aborted();\r\n        state = State.Inactive;\r\n        seller.transfer(this.balance);\r\n    }\r\n\r\n    /// Confirm the purchase as buyer.\r\n    /// Transaction has to include `2 * value` ether.\r\n    /// The ether will be locked until confirmReceived\r\n    /// is called.\r\n    function confirmPurchase()\r\n        public\r\n        inState(State.Created)\r\n        condition(msg.value == (2 * value))\r\n        payable\r\n    {\r\n        PurchaseConfirmed();\r\n        buyer = msg.sender;\r\n        state = State.Locked;\r\n    }\r\n\r\n    /// Confirm that you (the buyer) received the item.\r\n    /// This will release the locked ether.\r\n    function confirmReceived()\r\n        public\r\n        onlyBuyer\r\n        inState(State.Locked)\r\n    {\r\n        ItemReceived();\r\n        // It is important to change the state first because\r\n        // otherwise, the contracts called using `send` below\r\n        // can call in again here.\r\n        state = State.Inactive;\r\n\r\n        // NOTE: This actually allows both the buyer and the seller to\r\n        // block the refund - the withdraw pattern should be used.\r\n\r\n        buyer.transfer(value);\r\n        seller.transfer(this.balance);\r\n    }\r\n}",
  "sourcePath": "C:\\Users\\kevin\\OneDrive\\Documents\\GitHub\\HealthChainz1\\HealthChainz\\contracts\\Purchase.sol",
  "compiler": {
    "name": "solc",
    "version": "0.4.19+commit.c4cbbb05.Emscripten.clang"
  },
  "schemaVersion": "1.0.1",
  "updatedAt": "2018-02-04T00:29:43.335Z"
}